{
  "contractName": "ERC721CNFT",
  "abi": [
    {
      "inputs": [
        {
          "internalType": "string",
          "name": "name",
          "type": "string"
        },
        {
          "internalType": "string",
          "name": "symbol",
          "type": "string"
        },
        {
          "internalType": "string",
          "name": "uri",
          "type": "string"
        }
      ],
      "stateMutability": "nonpayable",
      "type": "constructor"
    },
    {
      "anonymous": false,
      "inputs": [
        {
          "indexed": true,
          "internalType": "address",
          "name": "owner",
          "type": "address"
        },
        {
          "indexed": true,
          "internalType": "address",
          "name": "approved",
          "type": "address"
        },
        {
          "indexed": true,
          "internalType": "uint256",
          "name": "tokenId",
          "type": "uint256"
        }
      ],
      "name": "Approval",
      "type": "event"
    },
    {
      "anonymous": false,
      "inputs": [
        {
          "indexed": true,
          "internalType": "address",
          "name": "owner",
          "type": "address"
        },
        {
          "indexed": true,
          "internalType": "address",
          "name": "operator",
          "type": "address"
        },
        {
          "indexed": false,
          "internalType": "bool",
          "name": "approved",
          "type": "bool"
        }
      ],
      "name": "ApprovalForAll",
      "type": "event"
    },
    {
      "anonymous": false,
      "inputs": [
        {
          "indexed": true,
          "internalType": "address",
          "name": "previousOwner",
          "type": "address"
        },
        {
          "indexed": true,
          "internalType": "address",
          "name": "newOwner",
          "type": "address"
        }
      ],
      "name": "OwnershipTransferred",
      "type": "event"
    },
    {
      "anonymous": false,
      "inputs": [
        {
          "indexed": false,
          "internalType": "address",
          "name": "to",
          "type": "address"
        },
        {
          "indexed": false,
          "internalType": "uint256",
          "name": "tokenID",
          "type": "uint256"
        }
      ],
      "name": "TokenPurchased",
      "type": "event"
    },
    {
      "anonymous": false,
      "inputs": [
        {
          "indexed": true,
          "internalType": "address",
          "name": "from",
          "type": "address"
        },
        {
          "indexed": true,
          "internalType": "address",
          "name": "to",
          "type": "address"
        },
        {
          "indexed": true,
          "internalType": "uint256",
          "name": "tokenId",
          "type": "uint256"
        }
      ],
      "name": "Transfer",
      "type": "event"
    },
    {
      "inputs": [
        {
          "internalType": "address",
          "name": "to",
          "type": "address"
        },
        {
          "internalType": "uint256",
          "name": "tokenId",
          "type": "uint256"
        }
      ],
      "name": "approve",
      "outputs": [],
      "stateMutability": "nonpayable",
      "type": "function"
    },
    {
      "inputs": [
        {
          "internalType": "address",
          "name": "owner",
          "type": "address"
        }
      ],
      "name": "balanceOf",
      "outputs": [
        {
          "internalType": "uint256",
          "name": "",
          "type": "uint256"
        }
      ],
      "stateMutability": "view",
      "type": "function"
    },
    {
      "inputs": [
        {
          "internalType": "uint256",
          "name": "tokenId",
          "type": "uint256"
        }
      ],
      "name": "getApproved",
      "outputs": [
        {
          "internalType": "address",
          "name": "",
          "type": "address"
        }
      ],
      "stateMutability": "view",
      "type": "function"
    },
    {
      "inputs": [
        {
          "internalType": "address",
          "name": "owner",
          "type": "address"
        },
        {
          "internalType": "address",
          "name": "operator",
          "type": "address"
        }
      ],
      "name": "isApprovedForAll",
      "outputs": [
        {
          "internalType": "bool",
          "name": "",
          "type": "bool"
        }
      ],
      "stateMutability": "view",
      "type": "function"
    },
    {
      "inputs": [],
      "name": "name",
      "outputs": [
        {
          "internalType": "string",
          "name": "",
          "type": "string"
        }
      ],
      "stateMutability": "view",
      "type": "function"
    },
    {
      "inputs": [],
      "name": "owner",
      "outputs": [
        {
          "internalType": "address",
          "name": "",
          "type": "address"
        }
      ],
      "stateMutability": "view",
      "type": "function"
    },
    {
      "inputs": [
        {
          "internalType": "uint256",
          "name": "tokenId",
          "type": "uint256"
        }
      ],
      "name": "ownerOf",
      "outputs": [
        {
          "internalType": "address",
          "name": "",
          "type": "address"
        }
      ],
      "stateMutability": "view",
      "type": "function"
    },
    {
      "inputs": [],
      "name": "renounceOwnership",
      "outputs": [],
      "stateMutability": "nonpayable",
      "type": "function"
    },
    {
      "inputs": [
        {
          "internalType": "address",
          "name": "from",
          "type": "address"
        },
        {
          "internalType": "address",
          "name": "to",
          "type": "address"
        },
        {
          "internalType": "uint256",
          "name": "tokenId",
          "type": "uint256"
        }
      ],
      "name": "safeTransferFrom",
      "outputs": [],
      "stateMutability": "nonpayable",
      "type": "function"
    },
    {
      "inputs": [
        {
          "internalType": "address",
          "name": "from",
          "type": "address"
        },
        {
          "internalType": "address",
          "name": "to",
          "type": "address"
        },
        {
          "internalType": "uint256",
          "name": "tokenId",
          "type": "uint256"
        },
        {
          "internalType": "bytes",
          "name": "data",
          "type": "bytes"
        }
      ],
      "name": "safeTransferFrom",
      "outputs": [],
      "stateMutability": "nonpayable",
      "type": "function"
    },
    {
      "inputs": [
        {
          "internalType": "address",
          "name": "operator",
          "type": "address"
        },
        {
          "internalType": "bool",
          "name": "approved",
          "type": "bool"
        }
      ],
      "name": "setApprovalForAll",
      "outputs": [],
      "stateMutability": "nonpayable",
      "type": "function"
    },
    {
      "inputs": [
        {
          "internalType": "bytes4",
          "name": "interfaceId",
          "type": "bytes4"
        }
      ],
      "name": "supportsInterface",
      "outputs": [
        {
          "internalType": "bool",
          "name": "",
          "type": "bool"
        }
      ],
      "stateMutability": "view",
      "type": "function"
    },
    {
      "inputs": [],
      "name": "symbol",
      "outputs": [
        {
          "internalType": "string",
          "name": "",
          "type": "string"
        }
      ],
      "stateMutability": "view",
      "type": "function"
    },
    {
      "inputs": [
        {
          "internalType": "uint256",
          "name": "tokenId",
          "type": "uint256"
        }
      ],
      "name": "tokenURI",
      "outputs": [
        {
          "internalType": "string",
          "name": "",
          "type": "string"
        }
      ],
      "stateMutability": "view",
      "type": "function"
    },
    {
      "inputs": [
        {
          "internalType": "address",
          "name": "from",
          "type": "address"
        },
        {
          "internalType": "address",
          "name": "to",
          "type": "address"
        },
        {
          "internalType": "uint256",
          "name": "tokenId",
          "type": "uint256"
        }
      ],
      "name": "transferFrom",
      "outputs": [],
      "stateMutability": "nonpayable",
      "type": "function"
    },
    {
      "inputs": [
        {
          "internalType": "address",
          "name": "newOwner",
          "type": "address"
        }
      ],
      "name": "transferOwnership",
      "outputs": [],
      "stateMutability": "nonpayable",
      "type": "function"
    },
    {
      "inputs": [
        {
          "internalType": "string",
          "name": "uri",
          "type": "string"
        }
      ],
      "name": "setURI",
      "outputs": [],
      "stateMutability": "nonpayable",
      "type": "function"
    },
    {
      "inputs": [
        {
          "internalType": "uint256",
          "name": "tokenId",
          "type": "uint256"
        },
        {
          "internalType": "address[]",
          "name": "snftContracts",
          "type": "address[]"
        },
        {
          "internalType": "uint256[]",
          "name": "snftTokenIds",
          "type": "uint256[]"
        }
      ],
      "name": "mint",
      "outputs": [],
      "stateMutability": "nonpayable",
      "type": "function"
    },
    {
      "inputs": [
        {
          "internalType": "uint256",
          "name": "tokenId",
          "type": "uint256"
        }
      ],
      "name": "getTokenSNFTComponents",
      "outputs": [
        {
          "internalType": "address[]",
          "name": "",
          "type": "address[]"
        },
        {
          "internalType": "uint256[]",
          "name": "",
          "type": "uint256[]"
        }
      ],
      "stateMutability": "view",
      "type": "function"
    }
  ],
  "bytecode": "0x60806040523480156200001157600080fd5b5060405162001d4838038062001d488339810160408190526200003491620002cc565b8251839083906200004d90600090602085019062000173565b5080516200006390600190602084019062000173565b505050620000806200007a6200009960201b60201c565b6200009d565b60016007556200009081620000ef565b505050620003ac565b3390565b600680546001600160a01b038381166001600160a01b0319831681179093556040519116919082907f8be0079c531659141344cd1fd0a4f28419497f9722a3daafe3b4186f6b6457e090600090a35050565b620000f962000112565b80516200010e90600890602084019062000173565b5050565b6006546001600160a01b03163314620001715760405162461bcd60e51b815260206004820181905260248201527f4f776e61626c653a2063616c6c6572206973206e6f7420746865206f776e6572604482015260640160405180910390fd5b565b828054620001819062000359565b90600052602060002090601f016020900481019282620001a55760008555620001f0565b82601f10620001c057805160ff1916838001178555620001f0565b82800160010185558215620001f0579182015b82811115620001f0578251825591602001919060010190620001d3565b50620001fe92915062000202565b5090565b5b80821115620001fe576000815560010162000203565b600082601f8301126200022a578081fd5b81516001600160401b038082111562000247576200024762000396565b604051601f8301601f19908116603f0116810190828211818310171562000272576200027262000396565b816040528381526020925086838588010111156200028e578485fd5b8491505b83821015620002b1578582018301518183018401529082019062000292565b83821115620002c257848385830101525b9695505050505050565b600080600060608486031215620002e1578283fd5b83516001600160401b0380821115620002f8578485fd5b620003068783880162000219565b945060208601519150808211156200031c578384fd5b6200032a8783880162000219565b9350604086015191508082111562000340578283fd5b506200034f8682870162000219565b9150509250925092565b600181811c908216806200036e57607f821691505b602082108114156200039057634e487b7160e01b600052602260045260246000fd5b50919050565b634e487b7160e01b600052604160045260246000fd5b61198c80620003bc6000396000f3fe608060405234801561001057600080fd5b50600436106101215760003560e01c8063715018a6116100ad578063c87b56dd11610071578063c87b56dd14610257578063cfa84fc11461026a578063d054cee41461027d578063e985e9c51461029e578063f2fde38b146102da57600080fd5b8063715018a6146102105780638da5cb5b1461021857806395d89b4114610229578063a22cb46514610231578063b88d4fde1461024457600080fd5b8063095ea7b3116100f4578063095ea7b3146101a357806323b872dd146101b657806342842e0e146101c95780636352211e146101dc57806370a08231146101ef57600080fd5b806301ffc9a71461012657806302fe53051461014e57806306fdde0314610163578063081812fc14610178575b600080fd5b6101396101343660046114ad565b6102ed565b60405190151581526020015b60405180910390f35b61016161015c3660046114e5565b61033f565b005b61016b61035e565b604051610145919061171d565b61018b61018636600461152b565b6103f0565b6040516001600160a01b039091168152602001610145565b6101616101b1366004611484565b610417565b6101616101c4366004611396565b610532565b6101616101d7366004611396565b610563565b61018b6101ea36600461152b565b61057e565b6102026101fd36600461134a565b6105de565b604051908152602001610145565b610161610664565b6006546001600160a01b031661018b565b61016b610678565b61016161023f36600461144a565b610687565b6101616102523660046113d1565b610692565b61016b61026536600461152b565b6106ca565b610161610278366004611543565b610731565b61029061028b36600461152b565b6107a1565b6040516101459291906116a7565b6101396102ac366004611364565b6001600160a01b03918216600090815260056020908152604080832093909416825291909152205460ff1690565b6101616102e836600461134a565b61086b565b60006001600160e01b031982166380ac58cd60e01b148061031e57506001600160e01b03198216635b5e139f60e01b145b8061033957506301ffc9a760e01b6001600160e01b03198316145b92915050565b6103476108e4565b805161035a90600890602084019061113f565b5050565b60606000805461036d90611894565b80601f016020809104026020016040519081016040528092919081815260200182805461039990611894565b80156103e65780601f106103bb576101008083540402835291602001916103e6565b820191906000526020600020905b8154815290600101906020018083116103c957829003601f168201915b5050505050905090565b60006103fb8261093e565b506000908152600460205260409020546001600160a01b031690565b60006104228261057e565b9050806001600160a01b0316836001600160a01b031614156104955760405162461bcd60e51b815260206004820152602160248201527f4552433732313a20617070726f76616c20746f2063757272656e74206f776e656044820152603960f91b60648201526084015b60405180910390fd5b336001600160a01b03821614806104b157506104b181336102ac565b6105235760405162461bcd60e51b815260206004820152603e60248201527f4552433732313a20617070726f76652063616c6c6572206973206e6f7420746f60448201527f6b656e206f776e6572206e6f7220617070726f76656420666f7220616c6c0000606482015260840161048c565b61052d838361099d565b505050565b61053c3382610a0b565b6105585760405162461bcd60e51b815260040161048c90611782565b61052d838383610a8a565b61052d83838360405180602001604052806000815250610692565b6000818152600260205260408120546001600160a01b0316806103395760405162461bcd60e51b8152602060048201526018602482015277115490cdcc8c4e881a5b9d985b1a59081d1bdad95b88125160421b604482015260640161048c565b60006001600160a01b0382166106485760405162461bcd60e51b815260206004820152602960248201527f4552433732313a2061646472657373207a65726f206973206e6f7420612076616044820152683634b21037bbb732b960b91b606482015260840161048c565b506001600160a01b031660009081526003602052604090205490565b61066c6108e4565b6106766000610c26565b565b60606001805461036d90611894565b61035a338383610c78565b61069c3383610a0b565b6106b85760405162461bcd60e51b815260040161048c90611782565b6106c484848484610d47565b50505050565b60606106d58261093e565b60006106df610d7a565b905060008151116106ff576040518060200160405280600081525061072a565b8061070984610d89565b60405160200161071a92919061163b565b6040516020818303038152906040525b9392505050565b6107396108e4565b604080518082018252838152602080820184905260008681526009825292909220815180519293919261076f92849201906111c3565b5060208281015180516107889260018501920190611218565b505060065461052d91506001600160a01b031684610ea3565b600081815260096020908152604091829020805483518184028101840190945280845260609384936001840192849183018282801561080957602002820191906000526020600020905b81546001600160a01b031681526001909101906020018083116107eb575b505050505091508080548060200260200160405190810160405280929190818152602001828054801561085b57602002820191906000526020600020905b815481526020019060010190808311610847575b5050505050905091509150915091565b6108736108e4565b6001600160a01b0381166108d85760405162461bcd60e51b815260206004820152602660248201527f4f776e61626c653a206e6577206f776e657220697320746865207a65726f206160448201526564647265737360d01b606482015260840161048c565b6108e181610c26565b50565b6006546001600160a01b031633146106765760405162461bcd60e51b815260206004820181905260248201527f4f776e61626c653a2063616c6c6572206973206e6f7420746865206f776e6572604482015260640161048c565b6000818152600260205260409020546001600160a01b03166108e15760405162461bcd60e51b8152602060048201526018602482015277115490cdcc8c4e881a5b9d985b1a59081d1bdad95b88125160421b604482015260640161048c565b600081815260046020526040902080546001600160a01b0319166001600160a01b03841690811790915581906109d28261057e565b6001600160a01b03167f8c5be1e5ebec7d5bd14f71427d1e84f3dd0314c0f7b2291e5b200ac8c7c3b92560405160405180910390a45050565b600080610a178361057e565b9050806001600160a01b0316846001600160a01b03161480610a5e57506001600160a01b0380821660009081526005602090815260408083209388168352929052205460ff165b80610a825750836001600160a01b0316610a77846103f0565b6001600160a01b0316145b949350505050565b826001600160a01b0316610a9d8261057e565b6001600160a01b031614610b015760405162461bcd60e51b815260206004820152602560248201527f4552433732313a207472616e736665722066726f6d20696e636f72726563742060448201526437bbb732b960d91b606482015260840161048c565b6001600160a01b038216610b635760405162461bcd60e51b8152602060048201526024808201527f4552433732313a207472616e7366657220746f20746865207a65726f206164646044820152637265737360e01b606482015260840161048c565b610b6e60008261099d565b6001600160a01b0383166000908152600360205260408120805460019290610b97908490611851565b90915550506001600160a01b0382166000908152600360205260408120805460019290610bc5908490611825565b909155505060008181526002602052604080822080546001600160a01b0319166001600160a01b0386811691821790925591518493918716917fddf252ad1be2c89b69c2b068fc378daa952ba7f163c4a11628f55a4df523b3ef91a4505050565b600680546001600160a01b038381166001600160a01b0319831681179093556040519116919082907f8be0079c531659141344cd1fd0a4f28419497f9722a3daafe3b4186f6b6457e090600090a35050565b816001600160a01b0316836001600160a01b03161415610cda5760405162461bcd60e51b815260206004820152601960248201527f4552433732313a20617070726f766520746f2063616c6c657200000000000000604482015260640161048c565b6001600160a01b03838116600081815260056020908152604080832094871680845294825291829020805460ff191686151590811790915591519182527f17307eab39ab6107e8899845ad3d59bd9653f200f220920489ca2b5937696c31910160405180910390a3505050565b610d52848484610a8a565b610d5e84848484610ebd565b6106c45760405162461bcd60e51b815260040161048c90611730565b60606008805461036d90611894565b606081610dad5750506040805180820190915260018152600360fc1b602082015290565b8160005b8115610dd75780610dc1816118cf565b9150610dd09050600a8361183d565b9150610db1565b60008167ffffffffffffffff811115610e0057634e487b7160e01b600052604160045260246000fd5b6040519080825280601f01601f191660200182016040528015610e2a576020820181803683370190505b5090505b8415610a8257610e3f600183611851565b9150610e4c600a866118ea565b610e57906030611825565b60f81b818381518110610e7a57634e487b7160e01b600052603260045260246000fd5b60200101906001600160f81b031916908160001a905350610e9c600a8661183d565b9450610e2e565b61035a828260405180602001604052806000815250610fca565b60006001600160a01b0384163b15610fbf57604051630a85bd0160e11b81526001600160a01b0385169063150b7a0290610f0190339089908890889060040161166a565b602060405180830381600087803b158015610f1b57600080fd5b505af1925050508015610f4b575060408051601f3d908101601f19168201909252610f48918101906114c9565b60015b610fa5573d808015610f79576040519150601f19603f3d011682016040523d82523d6000602084013e610f7e565b606091505b508051610f9d5760405162461bcd60e51b815260040161048c90611730565b805181602001fd5b6001600160e01b031916630a85bd0160e11b149050610a82565b506001949350505050565b610fd48383610ffd565b610fe16000848484610ebd565b61052d5760405162461bcd60e51b815260040161048c90611730565b6001600160a01b0382166110535760405162461bcd60e51b815260206004820181905260248201527f4552433732313a206d696e7420746f20746865207a65726f2061646472657373604482015260640161048c565b6000818152600260205260409020546001600160a01b0316156110b85760405162461bcd60e51b815260206004820152601c60248201527f4552433732313a20746f6b656e20616c7265616479206d696e74656400000000604482015260640161048c565b6001600160a01b03821660009081526003602052604081208054600192906110e1908490611825565b909155505060008181526002602052604080822080546001600160a01b0319166001600160a01b03861690811790915590518392907fddf252ad1be2c89b69c2b068fc378daa952ba7f163c4a11628f55a4df523b3ef908290a45050565b82805461114b90611894565b90600052602060002090601f01602090048101928261116d57600085556111b3565b82601f1061118657805160ff19168380011785556111b3565b828001600101855582156111b3579182015b828111156111b3578251825591602001919060010190611198565b506111bf929150611252565b5090565b8280548282559060005260206000209081019282156111b3579160200282015b828111156111b357825182546001600160a01b0319166001600160a01b039091161782556020909201916001909101906111e3565b8280548282559060005260206000209081019282156111b357916020028201828111156111b3578251825591602001919060010190611198565b5b808211156111bf5760008155600101611253565b600067ffffffffffffffff8311156112815761128161192a565b611294601f8401601f19166020016117d0565b90508281528383830111156112a857600080fd5b828260208301376000602084830101529392505050565b80356001600160a01b03811681146112d657600080fd5b919050565b600082601f8301126112eb578081fd5b813560206113006112fb83611801565b6117d0565b80838252828201915082860187848660051b890101111561131f578586fd5b855b8581101561133d57813584529284019290840190600101611321565b5090979650505050505050565b60006020828403121561135b578081fd5b61072a826112bf565b60008060408385031215611376578081fd5b61137f836112bf565b915061138d602084016112bf565b90509250929050565b6000806000606084860312156113aa578081fd5b6113b3846112bf565b92506113c1602085016112bf565b9150604084013590509250925092565b600080600080608085870312156113e6578081fd5b6113ef856112bf565b93506113fd602086016112bf565b925060408501359150606085013567ffffffffffffffff81111561141f578182fd5b8501601f8101871361142f578182fd5b61143e87823560208401611267565b91505092959194509250565b6000806040838503121561145c578182fd5b611465836112bf565b915060208301358015158114611479578182fd5b809150509250929050565b60008060408385031215611496578182fd5b61149f836112bf565b946020939093013593505050565b6000602082840312156114be578081fd5b813561072a81611940565b6000602082840312156114da578081fd5b815161072a81611940565b6000602082840312156114f6578081fd5b813567ffffffffffffffff81111561150c578182fd5b8201601f8101841361151c578182fd5b610a8284823560208401611267565b60006020828403121561153c578081fd5b5035919050565b600080600060608486031215611557578081fd5b8335925060208085013567ffffffffffffffff80821115611576578384fd5b818701915087601f830112611589578384fd5b81356115976112fb82611801565b8082825285820191508585018b878560051b88010111156115b6578788fd5b8795505b838610156115df576115cb816112bf565b8352600195909501949186019186016115ba565b509650505060408701359250808311156115f7578384fd5b5050611605868287016112db565b9150509250925092565b60008151808452611627816020860160208601611868565b601f01601f19169290920160200192915050565b6000835161164d818460208801611868565b835190830190611661818360208801611868565b01949350505050565b6001600160a01b038581168252841660208201526040810183905260806060820181905260009061169d9083018461160f565b9695505050505050565b604080825283519082018190526000906020906060840190828701845b828110156116e95781516001600160a01b0316845292840192908401906001016116c4565b50505083810382850152845180825285830191830190845b8181101561133d57835183529284019291840191600101611701565b60208152600061072a602083018461160f565b60208082526032908201527f4552433732313a207472616e7366657220746f206e6f6e20455243373231526560408201527131b2b4bb32b91034b6b83632b6b2b73a32b960711b606082015260800190565b6020808252602e908201527f4552433732313a2063616c6c6572206973206e6f7420746f6b656e206f776e6560408201526d1c881b9bdc88185c1c1c9bdd995960921b606082015260800190565b604051601f8201601f1916810167ffffffffffffffff811182821017156117f9576117f961192a565b604052919050565b600067ffffffffffffffff82111561181b5761181b61192a565b5060051b60200190565b60008219821115611838576118386118fe565b500190565b60008261184c5761184c611914565b500490565b600082821015611863576118636118fe565b500390565b60005b8381101561188357818101518382015260200161186b565b838111156106c45750506000910152565b600181811c908216806118a857607f821691505b602082108114156118c957634e487b7160e01b600052602260045260246000fd5b50919050565b60006000198214156118e3576118e36118fe565b5060010190565b6000826118f9576118f9611914565b500690565b634e487b7160e01b600052601160045260246000fd5b634e487b7160e01b600052601260045260246000fd5b634e487b7160e01b600052604160045260246000fd5b6001600160e01b0319811681146108e157600080fdfea2646970667358221220a8e7646a9ae72f02b0474c437658b906d8868478c21e19ea54c6ab927022a48a64736f6c63430008040033",
  "immutableReferences": {},
  "source": "// SPDX-License-Identifier: MIT\n\npragma solidity >=0.6.12;\n\nimport \"@openzeppelin/contracts/access/Ownable.sol\";\nimport \"@openzeppelin/contracts/token/ERC721/ERC721.sol\";\nimport \"@openzeppelin/contracts/security/ReentrancyGuard.sol\";\n\ncontract ERC721CNFT is ERC721, Ownable, ReentrancyGuard {\n\n  struct SNFTComponents {\n    address[] snftContracts;\n    uint256[] snftTokenIds;\n  }\n\n  event TokenPurchased(address to, uint256 tokenID);\n\n  string private _uri;\n  mapping(uint256 => SNFTComponents) private _snftComponents;\n  \n\n  constructor(string memory name, string memory symbol, string memory uri) ERC721(name, symbol) {\n    setURI(uri);\n  }\n\n  function _baseURI() internal view override returns (string memory) {\n    return _uri;\n  }\n\n  function setURI(string memory uri) public onlyOwner {\n    _uri = uri;\n  }\n\n  function mint(uint256 tokenId, \n              address[] memory snftContracts, \n              uint256[] memory snftTokenIds) public onlyOwner {\n    _snftComponents[tokenId] = SNFTComponents(snftContracts, snftTokenIds);\n    _safeMint(owner(), tokenId);\n  }\n\n  function getTokenSNFTComponents(uint256 tokenId) public view returns(address[] memory, uint256[] memory) {\n    return (_snftComponents[tokenId].snftContracts, _snftComponents[tokenId].snftTokenIds);\n  }\n}",
  "sourcePath": "/Users/qnguyen/work/remora/eth/contracts/ERC721CNFT.sol",
  "compiler": {
    "name": "solc",
    "version": "0.8.4+commit.c7e474f2.Emscripten.clang"
  },
  "schemaVersion": "3.4.10",
  "updatedAt": "2022-11-18T09:40:37.643Z",
  "devdoc": {
    "kind": "dev",
    "methods": {
      "approve(address,uint256)": {
        "details": "See {IERC721-approve}."
      },
      "balanceOf(address)": {
        "details": "See {IERC721-balanceOf}."
      },
      "getApproved(uint256)": {
        "details": "See {IERC721-getApproved}."
      },
      "isApprovedForAll(address,address)": {
        "details": "See {IERC721-isApprovedForAll}."
      },
      "name()": {
        "details": "See {IERC721Metadata-name}."
      },
      "owner()": {
        "details": "Returns the address of the current owner."
      },
      "ownerOf(uint256)": {
        "details": "See {IERC721-ownerOf}."
      },
      "renounceOwnership()": {
        "details": "Leaves the contract without owner. It will not be possible to call `onlyOwner` functions anymore. Can only be called by the current owner. NOTE: Renouncing ownership will leave the contract without an owner, thereby removing any functionality that is only available to the owner."
      },
      "safeTransferFrom(address,address,uint256)": {
        "details": "See {IERC721-safeTransferFrom}."
      },
      "safeTransferFrom(address,address,uint256,bytes)": {
        "details": "See {IERC721-safeTransferFrom}."
      },
      "setApprovalForAll(address,bool)": {
        "details": "See {IERC721-setApprovalForAll}."
      },
      "supportsInterface(bytes4)": {
        "details": "See {IERC165-supportsInterface}."
      },
      "symbol()": {
        "details": "See {IERC721Metadata-symbol}."
      },
      "tokenURI(uint256)": {
        "details": "See {IERC721Metadata-tokenURI}."
      },
      "transferFrom(address,address,uint256)": {
        "details": "See {IERC721-transferFrom}."
      },
      "transferOwnership(address)": {
        "details": "Transfers ownership of the contract to a new account (`newOwner`). Can only be called by the current owner."
      }
    },
    "version": 1
  },
  "userdoc": {
    "kind": "user",
    "methods": {},
    "version": 1
  }
}