{
  "contractName": "ERC721SNFT",
  "abi": [
    {
      "inputs": [
        {
          "internalType": "string",
          "name": "name",
          "type": "string"
        },
        {
          "internalType": "string",
          "name": "symbol",
          "type": "string"
        },
        {
          "internalType": "string",
          "name": "uri",
          "type": "string"
        }
      ],
      "stateMutability": "nonpayable",
      "type": "constructor"
    },
    {
      "anonymous": false,
      "inputs": [
        {
          "indexed": true,
          "internalType": "address",
          "name": "owner",
          "type": "address"
        },
        {
          "indexed": true,
          "internalType": "address",
          "name": "approved",
          "type": "address"
        },
        {
          "indexed": true,
          "internalType": "uint256",
          "name": "tokenId",
          "type": "uint256"
        }
      ],
      "name": "Approval",
      "type": "event"
    },
    {
      "anonymous": false,
      "inputs": [
        {
          "indexed": true,
          "internalType": "address",
          "name": "owner",
          "type": "address"
        },
        {
          "indexed": true,
          "internalType": "address",
          "name": "operator",
          "type": "address"
        },
        {
          "indexed": false,
          "internalType": "bool",
          "name": "approved",
          "type": "bool"
        }
      ],
      "name": "ApprovalForAll",
      "type": "event"
    },
    {
      "anonymous": false,
      "inputs": [
        {
          "indexed": true,
          "internalType": "address",
          "name": "previousOwner",
          "type": "address"
        },
        {
          "indexed": true,
          "internalType": "address",
          "name": "newOwner",
          "type": "address"
        }
      ],
      "name": "OwnershipTransferred",
      "type": "event"
    },
    {
      "anonymous": false,
      "inputs": [
        {
          "indexed": true,
          "internalType": "address",
          "name": "from",
          "type": "address"
        },
        {
          "indexed": true,
          "internalType": "address",
          "name": "to",
          "type": "address"
        },
        {
          "indexed": true,
          "internalType": "uint256",
          "name": "tokenId",
          "type": "uint256"
        }
      ],
      "name": "Transfer",
      "type": "event"
    },
    {
      "inputs": [
        {
          "internalType": "address",
          "name": "to",
          "type": "address"
        },
        {
          "internalType": "uint256",
          "name": "tokenId",
          "type": "uint256"
        }
      ],
      "name": "approve",
      "outputs": [],
      "stateMutability": "nonpayable",
      "type": "function"
    },
    {
      "inputs": [
        {
          "internalType": "address",
          "name": "owner",
          "type": "address"
        }
      ],
      "name": "balanceOf",
      "outputs": [
        {
          "internalType": "uint256",
          "name": "",
          "type": "uint256"
        }
      ],
      "stateMutability": "view",
      "type": "function"
    },
    {
      "inputs": [
        {
          "internalType": "uint256",
          "name": "tokenId",
          "type": "uint256"
        }
      ],
      "name": "getApproved",
      "outputs": [
        {
          "internalType": "address",
          "name": "",
          "type": "address"
        }
      ],
      "stateMutability": "view",
      "type": "function"
    },
    {
      "inputs": [
        {
          "internalType": "address",
          "name": "owner",
          "type": "address"
        },
        {
          "internalType": "address",
          "name": "operator",
          "type": "address"
        }
      ],
      "name": "isApprovedForAll",
      "outputs": [
        {
          "internalType": "bool",
          "name": "",
          "type": "bool"
        }
      ],
      "stateMutability": "view",
      "type": "function"
    },
    {
      "inputs": [],
      "name": "name",
      "outputs": [
        {
          "internalType": "string",
          "name": "",
          "type": "string"
        }
      ],
      "stateMutability": "view",
      "type": "function"
    },
    {
      "inputs": [],
      "name": "owner",
      "outputs": [
        {
          "internalType": "address",
          "name": "",
          "type": "address"
        }
      ],
      "stateMutability": "view",
      "type": "function"
    },
    {
      "inputs": [
        {
          "internalType": "uint256",
          "name": "tokenId",
          "type": "uint256"
        }
      ],
      "name": "ownerOf",
      "outputs": [
        {
          "internalType": "address",
          "name": "",
          "type": "address"
        }
      ],
      "stateMutability": "view",
      "type": "function"
    },
    {
      "inputs": [],
      "name": "renounceOwnership",
      "outputs": [],
      "stateMutability": "nonpayable",
      "type": "function"
    },
    {
      "inputs": [
        {
          "internalType": "address",
          "name": "from",
          "type": "address"
        },
        {
          "internalType": "address",
          "name": "to",
          "type": "address"
        },
        {
          "internalType": "uint256",
          "name": "tokenId",
          "type": "uint256"
        }
      ],
      "name": "safeTransferFrom",
      "outputs": [],
      "stateMutability": "nonpayable",
      "type": "function"
    },
    {
      "inputs": [
        {
          "internalType": "address",
          "name": "from",
          "type": "address"
        },
        {
          "internalType": "address",
          "name": "to",
          "type": "address"
        },
        {
          "internalType": "uint256",
          "name": "tokenId",
          "type": "uint256"
        },
        {
          "internalType": "bytes",
          "name": "data",
          "type": "bytes"
        }
      ],
      "name": "safeTransferFrom",
      "outputs": [],
      "stateMutability": "nonpayable",
      "type": "function"
    },
    {
      "inputs": [
        {
          "internalType": "address",
          "name": "operator",
          "type": "address"
        },
        {
          "internalType": "bool",
          "name": "approved",
          "type": "bool"
        }
      ],
      "name": "setApprovalForAll",
      "outputs": [],
      "stateMutability": "nonpayable",
      "type": "function"
    },
    {
      "inputs": [
        {
          "internalType": "bytes4",
          "name": "interfaceId",
          "type": "bytes4"
        }
      ],
      "name": "supportsInterface",
      "outputs": [
        {
          "internalType": "bool",
          "name": "",
          "type": "bool"
        }
      ],
      "stateMutability": "view",
      "type": "function"
    },
    {
      "inputs": [],
      "name": "symbol",
      "outputs": [
        {
          "internalType": "string",
          "name": "",
          "type": "string"
        }
      ],
      "stateMutability": "view",
      "type": "function"
    },
    {
      "inputs": [
        {
          "internalType": "uint256",
          "name": "tokenId",
          "type": "uint256"
        }
      ],
      "name": "tokenURI",
      "outputs": [
        {
          "internalType": "string",
          "name": "",
          "type": "string"
        }
      ],
      "stateMutability": "view",
      "type": "function"
    },
    {
      "inputs": [
        {
          "internalType": "address",
          "name": "from",
          "type": "address"
        },
        {
          "internalType": "address",
          "name": "to",
          "type": "address"
        },
        {
          "internalType": "uint256",
          "name": "tokenId",
          "type": "uint256"
        }
      ],
      "name": "transferFrom",
      "outputs": [],
      "stateMutability": "nonpayable",
      "type": "function"
    },
    {
      "inputs": [
        {
          "internalType": "address",
          "name": "newOwner",
          "type": "address"
        }
      ],
      "name": "transferOwnership",
      "outputs": [],
      "stateMutability": "nonpayable",
      "type": "function"
    },
    {
      "inputs": [
        {
          "internalType": "string",
          "name": "uri",
          "type": "string"
        }
      ],
      "name": "setURI",
      "outputs": [],
      "stateMutability": "nonpayable",
      "type": "function"
    },
    {
      "inputs": [
        {
          "internalType": "uint256",
          "name": "tokenId",
          "type": "uint256"
        },
        {
          "internalType": "uint256",
          "name": "sharePercent",
          "type": "uint256"
        }
      ],
      "name": "mint",
      "outputs": [],
      "stateMutability": "nonpayable",
      "type": "function"
    },
    {
      "inputs": [
        {
          "internalType": "uint256",
          "name": "tokenId",
          "type": "uint256"
        },
        {
          "internalType": "uint256",
          "name": "sharePercent",
          "type": "uint256"
        }
      ],
      "name": "setTokenShare",
      "outputs": [],
      "stateMutability": "nonpayable",
      "type": "function"
    },
    {
      "inputs": [
        {
          "internalType": "uint256",
          "name": "tokenId",
          "type": "uint256"
        }
      ],
      "name": "getTokenShare",
      "outputs": [
        {
          "internalType": "uint256",
          "name": "",
          "type": "uint256"
        }
      ],
      "stateMutability": "view",
      "type": "function"
    }
  ],
  "bytecode": "0x60806040523480156200001157600080fd5b5060405162001a7938038062001a798339810160408190526200003491620002cc565b8251839083906200004d90600090602085019062000173565b5080516200006390600190602084019062000173565b505050620000806200007a6200009960201b60201c565b6200009d565b60016007556200009081620000ef565b505050620003ac565b3390565b600680546001600160a01b038381166001600160a01b0319831681179093556040519116919082907f8be0079c531659141344cd1fd0a4f28419497f9722a3daafe3b4186f6b6457e090600090a35050565b620000f962000112565b80516200010e90600990602084019062000173565b5050565b6006546001600160a01b03163314620001715760405162461bcd60e51b815260206004820181905260248201527f4f776e61626c653a2063616c6c6572206973206e6f7420746865206f776e6572604482015260640160405180910390fd5b565b828054620001819062000359565b90600052602060002090601f016020900481019282620001a55760008555620001f0565b82601f10620001c057805160ff1916838001178555620001f0565b82800160010185558215620001f0579182015b82811115620001f0578251825591602001919060010190620001d3565b50620001fe92915062000202565b5090565b5b80821115620001fe576000815560010162000203565b600082601f8301126200022a578081fd5b81516001600160401b038082111562000247576200024762000396565b604051601f8301601f19908116603f0116810190828211818310171562000272576200027262000396565b816040528381526020925086838588010111156200028e578485fd5b8491505b83821015620002b1578582018301518183018401529082019062000292565b83821115620002c257848385830101525b9695505050505050565b600080600060608486031215620002e1578283fd5b83516001600160401b0380821115620002f8578485fd5b620003068783880162000219565b945060208601519150808211156200031c578384fd5b6200032a8783880162000219565b9350604086015191508082111562000340578283fd5b506200034f8682870162000219565b9150509250925092565b600181811c908216806200036e57607f821691505b602082108114156200039057634e487b7160e01b600052602260045260246000fd5b50919050565b634e487b7160e01b600052604160045260246000fd5b6116bd80620003bc6000396000f3fe608060405234801561001057600080fd5b506004361061012c5760003560e01c806370a08231116100ad578063b88d4fde11610071578063b88d4fde14610282578063c87b56dd14610295578063e985e9c5146102a8578063ecee458b146102e4578063f2fde38b146102f757600080fd5b806370a082311461023b578063715018a61461024e5780638da5cb5b1461025657806395d89b4114610267578063a22cb4651461026f57600080fd5b806317af3dc5116100f457806317af3dc5146101c15780631b2ef1ca146101ef57806323b872dd1461020257806342842e0e146102155780636352211e1461022857600080fd5b806301ffc9a71461013157806302fe53051461015957806306fdde031461016e578063081812fc14610183578063095ea7b3146101ae575b600080fd5b61014461013f366004611354565b61030a565b60405190151581526020015b60405180910390f35b61016c61016736600461138c565b61035c565b005b61017661037b565b60405161015091906114a3565b6101966101913660046113d2565b61040d565b6040516001600160a01b039091168152602001610150565b61016c6101bc36600461132b565b610434565b6101e16101cf3660046113d2565b60009081526008602052604090205490565b604051908152602001610150565b61016c6101fd3660046113ea565b61054f565b61016c61021036600461123d565b610583565b61016c61022336600461123d565b6105b4565b6101966102363660046113d2565b6105cf565b6101e16102493660046111f1565b61062f565b61016c6106b5565b6006546001600160a01b0316610196565b6101766106c9565b61016c61027d3660046112f1565b6106d8565b61016c610290366004611278565b6106e3565b6101766102a33660046113d2565b61071b565b6101446102b636600461120b565b6001600160a01b03918216600090815260056020908152604080832093909416825291909152205460ff1690565b61016c6102f23660046113ea565b610782565b61016c6103053660046111f1565b6107f2565b60006001600160e01b031982166380ac58cd60e01b148061033b57506001600160e01b03198216635b5e139f60e01b145b8061035657506301ffc9a760e01b6001600160e01b03198316145b92915050565b61036461086b565b80516103779060099060208401906110c6565b5050565b60606000805461038a906115c5565b80601f01602080910402602001604051908101604052809291908181526020018280546103b6906115c5565b80156104035780601f106103d857610100808354040283529160200191610403565b820191906000526020600020905b8154815290600101906020018083116103e657829003601f168201915b5050505050905090565b6000610418826108c5565b506000908152600460205260409020546001600160a01b031690565b600061043f826105cf565b9050806001600160a01b0316836001600160a01b031614156104b25760405162461bcd60e51b815260206004820152602160248201527f4552433732313a20617070726f76616c20746f2063757272656e74206f776e656044820152603960f91b60648201526084015b60405180910390fd5b336001600160a01b03821614806104ce57506104ce81336102b6565b6105405760405162461bcd60e51b815260206004820152603e60248201527f4552433732313a20617070726f76652063616c6c6572206973206e6f7420746f60448201527f6b656e206f776e6572206e6f7220617070726f76656420666f7220616c6c000060648201526084016104a9565b61054a8383610924565b505050565b61055761086b565b600082815260086020526040902081905561037761057d6006546001600160a01b031690565b83610992565b61058d33826109ac565b6105a95760405162461bcd60e51b81526004016104a990611508565b61054a838383610a2b565b61054a838383604051806020016040528060008152506106e3565b6000818152600260205260408120546001600160a01b0316806103565760405162461bcd60e51b8152602060048201526018602482015277115490cdcc8c4e881a5b9d985b1a59081d1bdad95b88125160421b60448201526064016104a9565b60006001600160a01b0382166106995760405162461bcd60e51b815260206004820152602960248201527f4552433732313a2061646472657373207a65726f206973206e6f7420612076616044820152683634b21037bbb732b960b91b60648201526084016104a9565b506001600160a01b031660009081526003602052604090205490565b6106bd61086b565b6106c76000610bc7565b565b60606001805461038a906115c5565b610377338383610c19565b6106ed33836109ac565b6107095760405162461bcd60e51b81526004016104a990611508565b61071584848484610ce8565b50505050565b6060610726826108c5565b6000610730610d1b565b90506000815111610750576040518060200160405280600081525061077b565b8061075a84610d2a565b60405160200161076b929190611437565b6040516020818303038152906040525b9392505050565b61078b826105cf565b6001600160a01b0316336001600160a01b0316146107e05760405162461bcd60e51b81526020600482015260126024820152715065726d697373696f6e2064656e6965642160701b60448201526064016104a9565b60009182526008602052604090912055565b6107fa61086b565b6001600160a01b03811661085f5760405162461bcd60e51b815260206004820152602660248201527f4f776e61626c653a206e6577206f776e657220697320746865207a65726f206160448201526564647265737360d01b60648201526084016104a9565b61086881610bc7565b50565b6006546001600160a01b031633146106c75760405162461bcd60e51b815260206004820181905260248201527f4f776e61626c653a2063616c6c6572206973206e6f7420746865206f776e657260448201526064016104a9565b6000818152600260205260409020546001600160a01b03166108685760405162461bcd60e51b8152602060048201526018602482015277115490cdcc8c4e881a5b9d985b1a59081d1bdad95b88125160421b60448201526064016104a9565b600081815260046020526040902080546001600160a01b0319166001600160a01b0384169081179091558190610959826105cf565b6001600160a01b03167f8c5be1e5ebec7d5bd14f71427d1e84f3dd0314c0f7b2291e5b200ac8c7c3b92560405160405180910390a45050565b610377828260405180602001604052806000815250610e44565b6000806109b8836105cf565b9050806001600160a01b0316846001600160a01b031614806109ff57506001600160a01b0380821660009081526005602090815260408083209388168352929052205460ff165b80610a235750836001600160a01b0316610a188461040d565b6001600160a01b0316145b949350505050565b826001600160a01b0316610a3e826105cf565b6001600160a01b031614610aa25760405162461bcd60e51b815260206004820152602560248201527f4552433732313a207472616e736665722066726f6d20696e636f72726563742060448201526437bbb732b960d91b60648201526084016104a9565b6001600160a01b038216610b045760405162461bcd60e51b8152602060048201526024808201527f4552433732313a207472616e7366657220746f20746865207a65726f206164646044820152637265737360e01b60648201526084016104a9565b610b0f600082610924565b6001600160a01b0383166000908152600360205260408120805460019290610b38908490611582565b90915550506001600160a01b0382166000908152600360205260408120805460019290610b66908490611556565b909155505060008181526002602052604080822080546001600160a01b0319166001600160a01b0386811691821790925591518493918716917fddf252ad1be2c89b69c2b068fc378daa952ba7f163c4a11628f55a4df523b3ef91a4505050565b600680546001600160a01b038381166001600160a01b0319831681179093556040519116919082907f8be0079c531659141344cd1fd0a4f28419497f9722a3daafe3b4186f6b6457e090600090a35050565b816001600160a01b0316836001600160a01b03161415610c7b5760405162461bcd60e51b815260206004820152601960248201527f4552433732313a20617070726f766520746f2063616c6c65720000000000000060448201526064016104a9565b6001600160a01b03838116600081815260056020908152604080832094871680845294825291829020805460ff191686151590811790915591519182527f17307eab39ab6107e8899845ad3d59bd9653f200f220920489ca2b5937696c31910160405180910390a3505050565b610cf3848484610a2b565b610cff84848484610e77565b6107155760405162461bcd60e51b81526004016104a9906114b6565b60606009805461038a906115c5565b606081610d4e5750506040805180820190915260018152600360fc1b602082015290565b8160005b8115610d785780610d6281611600565b9150610d719050600a8361156e565b9150610d52565b60008167ffffffffffffffff811115610da157634e487b7160e01b600052604160045260246000fd5b6040519080825280601f01601f191660200182016040528015610dcb576020820181803683370190505b5090505b8415610a2357610de0600183611582565b9150610ded600a8661161b565b610df8906030611556565b60f81b818381518110610e1b57634e487b7160e01b600052603260045260246000fd5b60200101906001600160f81b031916908160001a905350610e3d600a8661156e565b9450610dcf565b610e4e8383610f84565b610e5b6000848484610e77565b61054a5760405162461bcd60e51b81526004016104a9906114b6565b60006001600160a01b0384163b15610f7957604051630a85bd0160e11b81526001600160a01b0385169063150b7a0290610ebb903390899088908890600401611466565b602060405180830381600087803b158015610ed557600080fd5b505af1925050508015610f05575060408051601f3d908101601f19168201909252610f0291810190611370565b60015b610f5f573d808015610f33576040519150601f19603f3d011682016040523d82523d6000602084013e610f38565b606091505b508051610f575760405162461bcd60e51b81526004016104a9906114b6565b805181602001fd5b6001600160e01b031916630a85bd0160e11b149050610a23565b506001949350505050565b6001600160a01b038216610fda5760405162461bcd60e51b815260206004820181905260248201527f4552433732313a206d696e7420746f20746865207a65726f206164647265737360448201526064016104a9565b6000818152600260205260409020546001600160a01b03161561103f5760405162461bcd60e51b815260206004820152601c60248201527f4552433732313a20746f6b656e20616c7265616479206d696e7465640000000060448201526064016104a9565b6001600160a01b0382166000908152600360205260408120805460019290611068908490611556565b909155505060008181526002602052604080822080546001600160a01b0319166001600160a01b03861690811790915590518392907fddf252ad1be2c89b69c2b068fc378daa952ba7f163c4a11628f55a4df523b3ef908290a45050565b8280546110d2906115c5565b90600052602060002090601f0160209004810192826110f4576000855561113a565b82601f1061110d57805160ff191683800117855561113a565b8280016001018555821561113a579182015b8281111561113a57825182559160200191906001019061111f565b5061114692915061114a565b5090565b5b80821115611146576000815560010161114b565b600067ffffffffffffffff8084111561117a5761117a61165b565b604051601f8501601f19908116603f011681019082821181831017156111a2576111a261165b565b816040528093508581528686860111156111bb57600080fd5b858560208301376000602087830101525050509392505050565b80356001600160a01b03811681146111ec57600080fd5b919050565b600060208284031215611202578081fd5b61077b826111d5565b6000806040838503121561121d578081fd5b611226836111d5565b9150611234602084016111d5565b90509250929050565b600080600060608486031215611251578081fd5b61125a846111d5565b9250611268602085016111d5565b9150604084013590509250925092565b6000806000806080858703121561128d578081fd5b611296856111d5565b93506112a4602086016111d5565b925060408501359150606085013567ffffffffffffffff8111156112c6578182fd5b8501601f810187136112d6578182fd5b6112e58782356020840161115f565b91505092959194509250565b60008060408385031215611303578182fd5b61130c836111d5565b915060208301358015158114611320578182fd5b809150509250929050565b6000806040838503121561133d578182fd5b611346836111d5565b946020939093013593505050565b600060208284031215611365578081fd5b813561077b81611671565b600060208284031215611381578081fd5b815161077b81611671565b60006020828403121561139d578081fd5b813567ffffffffffffffff8111156113b3578182fd5b8201601f810184136113c3578182fd5b610a238482356020840161115f565b6000602082840312156113e3578081fd5b5035919050565b600080604083850312156113fc578182fd5b50508035926020909101359150565b60008151808452611423816020860160208601611599565b601f01601f19169290920160200192915050565b60008351611449818460208801611599565b83519083019061145d818360208801611599565b01949350505050565b6001600160a01b03858116825284166020820152604081018390526080606082018190526000906114999083018461140b565b9695505050505050565b60208152600061077b602083018461140b565b60208082526032908201527f4552433732313a207472616e7366657220746f206e6f6e20455243373231526560408201527131b2b4bb32b91034b6b83632b6b2b73a32b960711b606082015260800190565b6020808252602e908201527f4552433732313a2063616c6c6572206973206e6f7420746f6b656e206f776e6560408201526d1c881b9bdc88185c1c1c9bdd995960921b606082015260800190565b600082198211156115695761156961162f565b500190565b60008261157d5761157d611645565b500490565b6000828210156115945761159461162f565b500390565b60005b838110156115b457818101518382015260200161159c565b838111156107155750506000910152565b600181811c908216806115d957607f821691505b602082108114156115fa57634e487b7160e01b600052602260045260246000fd5b50919050565b60006000198214156116145761161461162f565b5060010190565b60008261162a5761162a611645565b500690565b634e487b7160e01b600052601160045260246000fd5b634e487b7160e01b600052601260045260246000fd5b634e487b7160e01b600052604160045260246000fd5b6001600160e01b03198116811461086857600080fdfea26469706673582212209737ec0355072a1d62eeeba5773d009afba5d0a6673ccb171a9cc14dee83086e64736f6c63430008040033",
  "immutableReferences": {},
  "source": "// SPDX-License-Identifier: MIT\n\npragma solidity >=0.6.12;\n\nimport \"@openzeppelin/contracts/utils/Strings.sol\";\n\nimport \"@openzeppelin/contracts/access/Ownable.sol\";\nimport \"@openzeppelin/contracts/token/ERC721/ERC721.sol\";\nimport \"@openzeppelin/contracts/security/ReentrancyGuard.sol\";\n\ncontract ERC721SNFT is ERC721, Ownable, ReentrancyGuard {\n\n  mapping(uint256 => uint256) private _tokenShares;\n  string private _uri;\n\n  constructor(string memory name, string memory symbol, string memory uri) ERC721(name, symbol) {\n    setURI(uri);\n  }\n\n  function _baseURI() internal view override returns (string memory) {\n    return _uri;\n  }\n\n  function setURI(string memory uri) public onlyOwner {\n    _uri = uri;\n  }\n\n  function mint(uint256 tokenId, uint256 sharePercent) public onlyOwner {\n    _tokenShares[tokenId] = sharePercent;\n    _safeMint(owner(), tokenId);\n  }\n\n  function setTokenShare(uint256 tokenId, uint256 sharePercent) public {\n    require(_msgSender() == ownerOf(tokenId), \"Permission denied!\");\n    _tokenShares[tokenId] = sharePercent;\n  }\n\n  function getTokenShare(uint256 tokenId) public view returns(uint256) {\n    return _tokenShares[tokenId];\n  }\n}",
  "sourcePath": "/Users/qnguyen/work/remora/eth/contracts/ERC721SNFT.sol",
  "compiler": {
    "name": "solc",
    "version": "0.8.4+commit.c7e474f2.Emscripten.clang"
  },
  "schemaVersion": "3.4.10",
  "updatedAt": "2022-11-18T09:40:37.648Z",
  "devdoc": {
    "kind": "dev",
    "methods": {
      "approve(address,uint256)": {
        "details": "See {IERC721-approve}."
      },
      "balanceOf(address)": {
        "details": "See {IERC721-balanceOf}."
      },
      "getApproved(uint256)": {
        "details": "See {IERC721-getApproved}."
      },
      "isApprovedForAll(address,address)": {
        "details": "See {IERC721-isApprovedForAll}."
      },
      "name()": {
        "details": "See {IERC721Metadata-name}."
      },
      "owner()": {
        "details": "Returns the address of the current owner."
      },
      "ownerOf(uint256)": {
        "details": "See {IERC721-ownerOf}."
      },
      "renounceOwnership()": {
        "details": "Leaves the contract without owner. It will not be possible to call `onlyOwner` functions anymore. Can only be called by the current owner. NOTE: Renouncing ownership will leave the contract without an owner, thereby removing any functionality that is only available to the owner."
      },
      "safeTransferFrom(address,address,uint256)": {
        "details": "See {IERC721-safeTransferFrom}."
      },
      "safeTransferFrom(address,address,uint256,bytes)": {
        "details": "See {IERC721-safeTransferFrom}."
      },
      "setApprovalForAll(address,bool)": {
        "details": "See {IERC721-setApprovalForAll}."
      },
      "supportsInterface(bytes4)": {
        "details": "See {IERC165-supportsInterface}."
      },
      "symbol()": {
        "details": "See {IERC721Metadata-symbol}."
      },
      "tokenURI(uint256)": {
        "details": "See {IERC721Metadata-tokenURI}."
      },
      "transferFrom(address,address,uint256)": {
        "details": "See {IERC721-transferFrom}."
      },
      "transferOwnership(address)": {
        "details": "Transfers ownership of the contract to a new account (`newOwner`). Can only be called by the current owner."
      }
    },
    "version": 1
  },
  "userdoc": {
    "kind": "user",
    "methods": {},
    "version": 1
  }
}