{
  "contractName": "SplitRevenueMarketplace",
  "abi": [
    {
      "anonymous": false,
      "inputs": [
        {
          "indexed": true,
          "internalType": "address",
          "name": "previousOwner",
          "type": "address"
        },
        {
          "indexed": true,
          "internalType": "address",
          "name": "newOwner",
          "type": "address"
        }
      ],
      "name": "OwnershipTransferred",
      "type": "event"
    },
    {
      "inputs": [],
      "name": "owner",
      "outputs": [
        {
          "internalType": "address",
          "name": "",
          "type": "address"
        }
      ],
      "stateMutability": "view",
      "type": "function"
    },
    {
      "inputs": [],
      "name": "renounceOwnership",
      "outputs": [],
      "stateMutability": "nonpayable",
      "type": "function"
    },
    {
      "inputs": [
        {
          "internalType": "address",
          "name": "newOwner",
          "type": "address"
        }
      ],
      "name": "transferOwnership",
      "outputs": [],
      "stateMutability": "nonpayable",
      "type": "function"
    },
    {
      "inputs": [
        {
          "internalType": "address",
          "name": "nftContract",
          "type": "address"
        },
        {
          "internalType": "uint256",
          "name": "tokenId",
          "type": "uint256"
        },
        {
          "internalType": "uint256",
          "name": "price",
          "type": "uint256"
        }
      ],
      "name": "listings",
      "outputs": [],
      "stateMutability": "nonpayable",
      "type": "function"
    },
    {
      "inputs": [
        {
          "internalType": "address",
          "name": "cnftContract",
          "type": "address"
        },
        {
          "internalType": "uint256",
          "name": "tokenId",
          "type": "uint256"
        }
      ],
      "name": "buy",
      "outputs": [],
      "stateMutability": "payable",
      "type": "function"
    },
    {
      "inputs": [],
      "name": "payout",
      "outputs": [],
      "stateMutability": "nonpayable",
      "type": "function"
    }
  ],
  "bytecode": "0x608060405234801561001057600080fd5b5061001a33610023565b60018055610073565b600080546001600160a01b038381166001600160a01b0319831681178455604051919092169283917f8be0079c531659141344cd1fd0a4f28419497f9722a3daafe3b4186f6b6457e09190a35050565b6110bc806100826000396000f3fe6080604052600436106100555760003560e01c806363bd1d4a1461005a578063715018a6146100715780637d3b48ea146100865780638da5cb5b146100a6578063cce7ec13146100d2578063f2fde38b146100e5575b600080fd5b34801561006657600080fd5b5061006f610105565b005b34801561007d57600080fd5b5061006f610411565b34801561009257600080fd5b5061006f6100a1366004610e55565b610425565b3480156100b257600080fd5b50600054604080516001600160a01b039092168252519081900360200190f35b61006f6100e0366004610e2a565b61051b565b3480156100f157600080fd5b5061006f610100366004610deb565b610b86565b61010d610bff565b600260015414156101655760405162461bcd60e51b815260206004820152601f60248201527f5265656e7472616e637947756172643a207265656e7472616e742063616c6c0060448201526064015b60405180910390fd5b600260015560005b60035481101561040a5760006003828154811061019a57634e487b7160e01b600052603260045260246000fd5b6000918252602091829020604080516060810182526003909302909101805460ff161515835260018101805483518187028101870190945280845293949193858301939283018282801561021757602002820191906000526020600020905b81546001600160a01b031681526001909101906020018083116101f9575b505050505081526020016002820180548060200260200160405190810160405280929190818152602001828054801561026f57602002820191906000526020600020905b81548152602001906001019080831161025b575b505050505081525050905080600001516103f7576020810151604082015160005b825181101561039d5760008382815181106102bb57634e487b7160e01b600052603260045260246000fd5b6020026020010151905060008383815181106102e757634e487b7160e01b600052603260045260246000fd5b602002602001015190506000826001600160a01b03168260405160006040518083038185875af1925050503d806000811461033e576040519150601f19603f3d011682016040523d82523d6000602084013e610343565b606091505b50509050806103875760405162461bcd60e51b815260206004820152601060248201526f5472616e73666572206661696c65642160801b604482015260640161015c565b50505080806103959061102a565b915050610290565b50600384815481106103bf57634e487b7160e01b600052603260045260246000fd5b600091825260208220600390910201805460ff19168155906103e46001830182610ca9565b6103f2600283016000610ca9565b505050505b50806104028161102a565b91505061016d565b5060018055565b610419610bff565b6104236000610c59565b565b6040516331a9108f60e11b81526004810183905283906001600160a01b03821690636352211e9060240160206040518083038186803b15801561046757600080fd5b505afa15801561047b573d6000803e3d6000fd5b505050506040513d601f19601f8201168201806040525081019061049f9190610e0e565b6001600160a01b0316336001600160a01b0316146104f45760405162461bcd60e51b81526020600482015260126024820152715065726d697373696f6e2064656e6965642160701b604482015260640161015c565b506001600160a01b0390921660009081526002602090815260408083209383529290522055565b6002600154141561056e5760405162461bcd60e51b815260206004820152601f60248201527f5265656e7472616e637947756172643a207265656e7472616e742063616c6c00604482015260640161015c565b600260018190556001600160a01b038316600090815260209182526040808220848352909252205434818110156105db5760405162461bcd60e51b81526020600482015260116024820152704e6f7420656e6f756768206d6f6e65792160781b604482015260640161015c565b6040516331a9108f60e11b81526004810184905284906000906001600160a01b03831690636352211e9060240160206040518083038186803b15801561062057600080fd5b505afa158015610634573d6000803e3d6000fd5b505050506040513d601f19601f820116820180604052508101906106589190610e0e565b9050600080836001600160a01b031663d054cee4886040518263ffffffff1660e01b815260040161068b91815260200190565b60006040518083038186803b1580156106a357600080fd5b505afa1580156106b7573d6000803e3d6000fd5b505050506040513d6000823e601f3d908101601f191682016040526106df9190810190610e89565b915091506000825160016106f39190610fbc565b67ffffffffffffffff81111561071957634e487b7160e01b600052604160045260246000fd5b604051908082528060200260200182016040528015610742578160200160208202803683370190505b5090506000835160016107559190610fbc565b67ffffffffffffffff81111561077b57634e487b7160e01b600052604160045260246000fd5b6040519080825280602002602001820160405280156107a4578160200160208202803683370190505b5090508660005b85518110156109e35760008682815181106107d657634e487b7160e01b600052603260045260246000fd5b60200260200101519050600086838151811061080257634e487b7160e01b600052603260045260246000fd5b6020026020010151905060008290506000816001600160a01b03166317af3dc5846040518263ffffffff1660e01b815260040161084191815260200190565b60206040518083038186803b15801561085957600080fd5b505afa15801561086d573d6000803e3d6000fd5b505050506040513d601f19601f820116820180604052508101906108919190610f4f565b6040516331a9108f60e11b8152600481018590529091506000906001600160a01b03841690636352211e9060240160206040518083038186803b1580156108d757600080fd5b505afa1580156108eb573d6000803e3d6000fd5b505050506040513d601f19601f8201168201806040525081019061090f9190610e0e565b90508089878151811061093257634e487b7160e01b600052603260045260246000fd5b60200260200101906001600160a01b031690816001600160a01b0316815250506064828f6109609190610ff4565b61096a9190610fd4565b88878151811061098a57634e487b7160e01b600052603260045260246000fd5b6020026020010181815250508786815181106109b657634e487b7160e01b600052603260045260246000fd5b6020026020010151876109c99190611013565b9650505050505080806109db9061102a565b9150506107ab565b86848281518110610a0457634e487b7160e01b600052603260045260246000fd5b60200260200101906001600160a01b031690816001600160a01b03168152505081838281518110610a4557634e487b7160e01b600052603260045260246000fd5b602090810291909101810191909152604080516060810182526000808252818401888152928201879052600380546001810182559181905282517fc2575a0e9e593c00f959f8c92f12db2869c3395a3b0502d05e2516446f71f85b92909102918201805460ff1916911515919091178155925180519294610aed937fc2575a0e9e593c00f959f8c92f12db2869c3395a3b0502d05e2516446f71f85c90930192910190610cc7565b5060408201518051610b09916002840191602090910190610d2c565b5050604051632142170760e11b81526001600160a01b038981166004830152336024830152604482018e90528a1691506342842e0e90606401600060405180830381600087803b158015610b5c57600080fd5b505af1158015610b70573d6000803e3d6000fd5b5050600180555050505050505050505050505050565b610b8e610bff565b6001600160a01b038116610bf35760405162461bcd60e51b815260206004820152602660248201527f4f776e61626c653a206e6577206f776e657220697320746865207a65726f206160448201526564647265737360d01b606482015260840161015c565b610bfc81610c59565b50565b6000546001600160a01b031633146104235760405162461bcd60e51b815260206004820181905260248201527f4f776e61626c653a2063616c6c6572206973206e6f7420746865206f776e6572604482015260640161015c565b600080546001600160a01b038381166001600160a01b0319831681178455604051919092169283917f8be0079c531659141344cd1fd0a4f28419497f9722a3daafe3b4186f6b6457e09190a35050565b5080546000825590600052602060002090810190610bfc9190610d67565b828054828255906000526020600020908101928215610d1c579160200282015b82811115610d1c57825182546001600160a01b0319166001600160a01b03909116178255602090920191600190910190610ce7565b50610d28929150610d67565b5090565b828054828255906000526020600020908101928215610d1c579160200282015b82811115610d1c578251825591602001919060010190610d4c565b5b80821115610d285760008155600101610d68565b600082601f830112610d8c578081fd5b81516020610da1610d9c83610f98565b610f67565b80838252828201915082860187848660051b8901011115610dc0578586fd5b855b85811015610dde57815184529284019290840190600101610dc2565b5090979650505050505050565b600060208284031215610dfc578081fd5b8135610e0781611071565b9392505050565b600060208284031215610e1f578081fd5b8151610e0781611071565b60008060408385031215610e3c578081fd5b8235610e4781611071565b946020939093013593505050565b600080600060608486031215610e69578081fd5b8335610e7481611071565b95602085013595506040909401359392505050565b60008060408385031215610e9b578182fd5b825167ffffffffffffffff80821115610eb2578384fd5b818501915085601f830112610ec5578384fd5b81516020610ed5610d9c83610f98565b8083825282820191508286018a848660051b8901011115610ef4578889fd5b8896505b84871015610f1f578051610f0b81611071565b835260019690960195918301918301610ef8565b5091880151919650909350505080821115610f38578283fd5b50610f4585828601610d7c565b9150509250929050565b600060208284031215610f60578081fd5b5051919050565b604051601f8201601f1916810167ffffffffffffffff81118282101715610f9057610f9061105b565b604052919050565b600067ffffffffffffffff821115610fb257610fb261105b565b5060051b60200190565b60008219821115610fcf57610fcf611045565b500190565b600082610fef57634e487b7160e01b81526012600452602481fd5b500490565b600081600019048311821515161561100e5761100e611045565b500290565b60008282101561102557611025611045565b500390565b600060001982141561103e5761103e611045565b5060010190565b634e487b7160e01b600052601160045260246000fd5b634e487b7160e01b600052604160045260246000fd5b6001600160a01b0381168114610bfc57600080fdfea264697066735822122015c2b74b6ae23e0849d569464e70818afa05fbbdcc769f2b81c2d6f3cb01b09964736f6c63430008040033",
  "immutableReferences": {},
  "source": "// SPDX-License-Identifier: MIT\n\npragma solidity >=0.6.12;\n\nimport \"@openzeppelin/contracts/access/Ownable.sol\";\nimport \"@openzeppelin/contracts/security/ReentrancyGuard.sol\";\nimport \"./ERC721CNFT.sol\";\nimport \"./ERC721SNFT.sol\";\n\ncontract SplitRevenueMarketplace is Ownable, ReentrancyGuard {\n\n  // event PayoutOrderCreated(address snftContract, uint256 snftTokenId, uint256 amount);\n  // event PayoutOrderFullfiled(address payee, uint256 amount);\n\n  struct PayoutOrder {\n    bool payed;\n    address[] payees;\n    uint256[] amounts;\n  }\n\n  mapping(address => mapping(uint256 => uint256)) private _listings;\n  PayoutOrder[] private payoutOrders;\n\n  function listings(address nftContract, uint256 tokenId, uint256 price) public { // price in wei\n    ERC721CNFT targetContract = ERC721CNFT(nftContract);\n    require(msg.sender == targetContract.ownerOf(tokenId), \"Permission denied!\");\n    _listings[nftContract][tokenId] = price;\n  }\n\n  function buy(address cnftContract, uint256 tokenId) public payable nonReentrant {\n    uint256 listingPrice = _listings[cnftContract][tokenId];\n    uint256 buyPrice = msg.value;\n    require(buyPrice >= listingPrice, \"Not enough money!\");\n\n    ERC721CNFT targetContract = ERC721CNFT(cnftContract);\n    address cnftOwner = targetContract.ownerOf(tokenId);\n    (address[] memory componentContracts, uint256[] memory componentTokenIds) = targetContract.getTokenSNFTComponents(tokenId);\n    address[] memory _payees = new address[](componentContracts.length + 1);\n    uint256[] memory _amounts = new uint256[](componentContracts.length + 1);\n    uint256 remain = buyPrice;\n    uint256 i = 0;\n    for (; i < componentContracts.length; i++) {\n      address componentContract = componentContracts[i];\n      uint256 componentTokenId = componentTokenIds[i];\n      ERC721SNFT sContract = ERC721SNFT(componentContract);\n      uint256 share = sContract.getTokenShare(componentTokenId);\n      address snftOwner = sContract.ownerOf(componentTokenId);\n      _payees[i] = snftOwner;\n      _amounts[i] = (buyPrice * share) / 100;\n      remain -= _amounts[i];\n      // emit PayoutOrderCreated(componentContract, componentTokenId, _amounts[i]);\n    }\n    _payees[i] = cnftOwner;\n    _amounts[i] = remain;\n    payoutOrders.push(PayoutOrder(false, _payees, _amounts));\n    targetContract.safeTransferFrom(cnftOwner, msg.sender, tokenId);\n  }\n\n  function payout() public onlyOwner nonReentrant {\n    for (uint i = 0; i < payoutOrders.length; i++) {\n      PayoutOrder memory payoutOrder = payoutOrders[i];\n      if (!payoutOrder.payed) {\n        address[] memory payees = payoutOrder.payees;\n        uint256[] memory amounts =  payoutOrder.amounts;\n        for (uint j = 0; j < payees.length; j++) {\n          address _payee = payees[j];\n          uint256 _amount = amounts[j];\n          (bool success,)= _payee.call{ value : _amount }(\"\");\n          require(success, \"Transfer failed!\");\n          // emit PayoutOrderFullfiled(_payee, _amount);\n        }\n        delete payoutOrders[i];\n      }\n    }\n  }\n}",
  "sourcePath": "/Users/qnguyen/work/remora/eth/contracts/SplitRevenueMarketplace.sol",
  "compiler": {
    "name": "solc",
    "version": "0.8.4+commit.c7e474f2.Emscripten.clang"
  },
  "schemaVersion": "3.4.10",
  "updatedAt": "2022-11-18T15:58:09.809Z",
  "devdoc": {
    "kind": "dev",
    "methods": {
      "owner()": {
        "details": "Returns the address of the current owner."
      },
      "renounceOwnership()": {
        "details": "Leaves the contract without owner. It will not be possible to call `onlyOwner` functions anymore. Can only be called by the current owner. NOTE: Renouncing ownership will leave the contract without an owner, thereby removing any functionality that is only available to the owner."
      },
      "transferOwnership(address)": {
        "details": "Transfers ownership of the contract to a new account (`newOwner`). Can only be called by the current owner."
      }
    },
    "version": 1
  },
  "userdoc": {
    "kind": "user",
    "methods": {},
    "version": 1
  }
}